:100000000C942A000C943F000C943F000C943F0089
:100010000C943F000C943F000C943F000C943F0064
:100020000C943F000C943F000C943F000C943F0054
:100030000C943F000C943F000C943F000C943F0044
:100040000C943F000C943F000C943F000C943F0034
:100050000C943F0011241FBECFE5D8E0DEBFCDBF1A
:1000600010E0A0E6B0E0EAE9FAE002C005900D92E7
:10007000A23AB107D9F70E9427040C944B050C94BF
:100080000000CF93DF9300D0CDB7DEB789836A83BA
:100090008A81882F90E0009719F0019789F15FC05D
:1000A0008981869586958695882F90E0880F991F7F
:1000B000805A9F4FFC0180819181FC018081482FF3
:1000C0008981882F90E09C012770332781E090E0A0
:1000D00002C0880F991F2A95E2F78095242F2823C4
:1000E0008981869586958695882F90E0880F991F3F
:1000F000805A9F4FFC0180819181FC0120832FC099
:100100008981869586958695882F90E0880F991F1E
:10011000805A9F4FFC0180819181FC018081482F92
:100120008981882F90E09C012770332781E090E03F
:1001300002C0880F991F2A95E2F7242F282B898166
:10014000869586958695882F90E0880F991F805A0E
:100150009F4FFC0180819181FC0120830000000001
:100160000F900F90DF91CF910895CF93DF9300D040
:10017000CDB7DEB789836A838A81882F90E081308A
:100180009105B9F18230910509F462C0892B09F01B
:100190008EC08981869586958695882F90E0880FF8
:1001A000991F8A589F4FFC0180819181FC018081B9
:1001B000482F8981882F90E09C012770332781E0A8
:1001C00090E002C0880F991F2A95E2F78095242FAE
:1001D00028238981869586958695882F90E0880FBB
:1001E000991F8A589F4FFC0180819181FC012083D7
:1001F0005EC08981869586958695882F90E0880FC8
:10020000991F8A589F4FFC0180819181FC01808158
:10021000482F8981882F90E09C012770332781E047
:1002200090E002C0880F991F2A95E2F7242F282B0F
:100230008981869586958695882F90E0880F991FED
:100240008A589F4FFC0180819181FC0120832FC03F
:100250008981869586958695882F90E0880F991FCD
:100260008A589F4FFC0180819181FC018081482F39
:100270008981882F90E09C012770332781E090E0EE
:1002800002C0880F991F2A95E2F7242F2827898119
:10029000869586958695882F90E0880F991F8A58B5
:1002A0009F4FFC0180819181FC01208300000000B0
:1002B0000F900F90DF91CF910895CF93DF9300D0EF
:1002C00000D01F92CDB7DEB79B838A836C834D83AA
:1002D00019829BC08D81882F90E0009721F00197B3
:1002E00009F449C08FC08981882F90E02A813B8121
:1002F000820F931FFC018081869586958695882FB5
:1003000090E0880F991F805A9F4FFC018081918156
:10031000FC018081482F8981882F90E02A813B81D0
:10032000820F931FFC018081882F90E09C01277031
:10033000332781E090E002C0880F991F2A95E2F7E9
:10034000809548238981882F90E02A813B81820F04
:10035000931FFC018081869586958695882F90E075
:10036000880F991F805A9F4FFC0180819181242F13
:10037000FC01208347C08981882F90E02A813B813E
:10038000820F931FFC018081869586958695882F24
:1003900090E0880F991F805A9F4FFC0180819181C6
:1003A000FC018081482F8981882F90E02A813B8140
:1003B000820F931FFC018081882F90E09C012770A1
:1003C000332781E090E002C0880F991F2A95E2F759
:1003D000482B8981882F90E02A813B81820F931FCF
:1003E000FC018081869586958695882F90E0880F00
:1003F000991F805A9F4FFC0180819181242FFC011D
:100400002083000089818F5F898399818C8198176F
:1004100008F460CF00000F900F900F900F900F9096
:10042000DF91CF910895CF93DF9300D000D01F923A
:10043000CDB7DEB79B838A836C834D831982E7C077
:100440008D81882F90E08130910509F44FC0823072
:10045000910509F492C0892B09F0D6C08981882FB3
:1004600090E02A813B81820F931FFC018081869559
:1004700086958695882F90E0880F991F8A589F4F00
:10048000FC0180819181FC018081482F8981882F26
:1004900090E02A813B81820F931FFC018081882F8D
:1004A00090E09C012770332781E090E002C0880F24
:1004B000991F2A95E2F7809548238981882F90E03B
:1004C0002A813B81820F931FFC018081869586954E
:1004D0008695882F90E0880F991F8A589F4FFC01BE
:1004E00080819181242FFC0120838EC08981882FF7
:1004F00090E02A813B81820F931FFC0180818695C9
:1005000086958695882F90E0880F991F8A589F4F6F
:10051000FC0180819181FC018081482F8981882F95
:1005200090E02A813B81820F931FFC018081882FFC
:1005300090E09C012770332781E090E002C0880F93
:10054000991F2A95E2F7482B8981882F90E02A810C
:100550003B81820F931FFC0180818695869586954D
:10056000882F90E0880F991F8A589F4FFC01808147
:100570009181242FFC01208347C08981882F90E03E
:100580002A813B81820F931FFC018081869586958D
:100590008695882F90E0880F991F8A589F4FFC01FD
:1005A00080819181FC018081482F8981882F90E092
:1005B0002A813B81820F931FFC018081882F90E06C
:1005C0009C012770332781E090E002C0880F991FBB
:1005D0002A95E2F748278981882F90E02A813B817C
:1005E000820F931FFC018081869586958695882FC2
:1005F00090E0880F991F8A589F4FFC01808191815C
:10060000242FFC012083000089818F5F89839981D9
:100610008C81981708F414CF00000F900F900F9062
:100620000F900F90DF91CF910895CF93DF9300D07B
:10063000CDB7DEB78A8319828A818695869586959D
:10064000882F90E0880F991F84579F4FFC0180816D
:100650009181FC018081882F90E02A81222F30E057
:100660002770332702C0959587952A95E2F7817008
:10067000898389810F900F90DF91CF910895CF9357
:10068000DF9300D0CDB7DEB789836A838981882F55
:1006900090E0880F991F805A9F4FFC0180819181C3
:1006A0002A81FC01208300000F900F90DF91CF91F1
:1006B0000895CF93DF9300D0CDB7DEB789836A83E7
:1006C0008981882F90E0880F991F8A589F4FFC01DD
:1006D000808191812A81FC01208300000F900F907E
:1006E000DF91CF910895CF93DF9300D0CDB7DEB7E0
:1006F0008A8319828A81882F90E0880F991F8457F6
:100700009F4FFC0180819181FC01808189838981D7
:100710000F900F90DF91CF910895CF93DF93CDB7D6
:10072000DEB761E080E00E9441000000DF91CF91E0
:100730000895CF93DF93CDB7DEB72E970FB6F89419
:10074000DEBF0FBECDBF61E080E00E94B50080E05B
:1007500090E0A8ECB2E489839A83AB83BC8320E069
:1007600030E04AEF54E469817A818B819C810E9458
:10077000B604DC01CB018D839E83AF83B88720E074
:1007800030E040E85FE36D817E818F8198850E9433
:10079000300488232CF481E090E09A8789873FC059
:1007A00020E03FEF4FE757E46D817E818F81988590
:1007B0000E94B10418164CF520E030E040E251E40C
:1007C00069817A818B819C810E94B604DC01CB0116
:1007D000BC01CD010E943504DC01CB019A878987D9
:1007E0000FC088EC90E09C878B878B859C85019758
:1007F000F1F79C878B8789859A8501979A878987E6
:1008000089859A85892B69F714C06D817E818F81D6
:1008100098850E943504DC01CB019A8789878985F8
:100820009A859E878D878D859E850197F1F79E8796
:100830008D8760E080E00E94B50000002E960FB624
:10084000F894DEBF0FBECDBFDF91CF910895CF9357
:10085000DF93CDB7DEB70E948D030E949903FDCFD1
:100860000E94640408F481E008950E94900488F0D6
:100870009F5798F0B92F9927B751B0F0E1F0660F64
:10088000771F881F991F1AF0BA95C9F714C0B130A5
:1008900091F00E94AA04B1E008950C94AA04672F75
:1008A000782F8827B85F39F0B93FCCF386957795D4
:1008B0006795B395D9F73EF49095809570956195BD
:1008C0007F4F8F4F9F4F0895990F0008550FAA0B28
:1008D000E0E8FEEF16161706E807F907C0F0121653
:1008E0001306E407F50798F0621B730B840B950B56
:1008F00039F40A2661F0232B242B252B21F40895AB
:100900000A2609F4A140A6958FEF811D811D089547
:1009100057FD9058440F551F59F05F3F71F04795B0
:10092000880F97FB991F61F09F3F79F08795089595
:10093000121613061406551FF2CF4695F1DF08C0B4
:10094000161617061806991FF1CF869571056105D1
:1009500008940895E894BB2766277727CB0197F979
:1009600008950E94640408F48FEF08950E94C9045A
:100970000C943A050E942C0538F00E94330520F0B3
:10098000952311F00C9423050C94290511240C9443
:10099000AB040E94880470F3959FC1F3950F50E05B
:1009A000551F629FF001729FBB27F00DB11D639F21
:1009B000AA27F00DB11DAA1F649F6627B00DA11DC7
:1009C000661F829F2227B00DA11D621F739FB00D6D
:1009D000A11D621F839FA00D611D221F749F3327DD
:1009E000A00D611D231F849F600D211D822F762F76
:1009F0006A2F11249F5750409AF0F1F088234AF053
:100A0000EE0FFF1FBB1F661F771F881F91505040BE
:100A1000A9F79E3F510580F00C9423050C94AB047C
:100A20005F3FE4F3983ED4F3869577956795B79545
:100A3000F795E7959F5FC1F7FE2B880F911D96955F
:100A4000879597F9089597F99F6780E870E060E0CF
:100A500008959FEF80EC089500240A941616170657
:100A600018060906089500240A941216130614069F
:100A700005060895092E0394000C11F4882352F002
:100A8000BB0F40F4BF2B11F460FF04C06F5F7F4FBA
:0A0A90008F4F9F4F0895F894FFCF99
:100A9A003A00370034003100000000000000000076
:100AAA000000000000003B00380035003200000062
:100ABA0000000000000000000000000039003600BD
:100ACA0033003000000000000000000000000000B9
:020ADA0000001A
:00000001FF
